{"abi":[{"type":"constructor","inputs":[],"stateMutability":"nonpayable"},{"type":"receive","stateMutability":"payable"},{"type":"function","name":"getAmountIn","inputs":[{"name":"amountOut","type":"uint256","internalType":"uint256"},{"name":"tokenOut","type":"address","internalType":"address"}],"outputs":[{"name":"amountIn","type":"uint256","internalType":"uint256"}],"stateMutability":"view"},{"type":"function","name":"pairExists","inputs":[{"name":"token","type":"address","internalType":"address"}],"outputs":[{"name":"","type":"bool","internalType":"bool"}],"stateMutability":"view"},{"type":"function","name":"recoverToken","inputs":[{"name":"token","type":"address","internalType":"address"},{"name":"amount","type":"uint256","internalType":"uint256"}],"outputs":[],"stateMutability":"nonpayable"},{"type":"function","name":"swapBNBForExactTokens","inputs":[{"name":"amountOut","type":"uint256","internalType":"uint256"},{"name":"tokenOut","type":"address","internalType":"address"},{"name":"deadline","type":"uint256","internalType":"uint256"}],"outputs":[{"name":"amountIn","type":"uint256","internalType":"uint256"}],"stateMutability":"payable"},{"type":"event","name":"SwapExecuted","inputs":[{"name":"user","type":"address","indexed":true,"internalType":"address"},{"name":"tokenOut","type":"address","indexed":true,"internalType":"address"},{"name":"amountIn","type":"uint256","indexed":false,"internalType":"uint256"},{"name":"amountOut","type":"uint256","indexed":false,"internalType":"uint256"}],"anonymous":false},{"type":"error","name":"DeadlineExpired","inputs":[]},{"type":"error","name":"InsufficientInputAmount","inputs":[]},{"type":"error","name":"InsufficientOutputAmount","inputs":[]},{"type":"error","name":"InvalidToken","inputs":[]},{"type":"error","name":"PairNotFound","inputs":[]},{"type":"error","name":"TransferFailed","inputs":[]}],"bytecode":{"object":"0x608060405234801561001057600080fd5b506001600055610bc5806100256000396000f3fe6080604052600436106100435760003560e01c80631125f13f1461004f5780631a56f64814610082578063b29a8140146100b2578063d7c70c5a146100d457600080fd5b3661004a57005b600080fd5b34801561005b57600080fd5b5061006f61006a36600461094b565b6100e7565b6040519081526020015b60405180910390f35b34801561008e57600080fd5b506100a261009d36600461097b565b6101bd565b6040519015158152602001610079565b3480156100be57600080fd5b506100d26100cd36600461099f565b6101ef565b005b61006f6100e23660046109cb565b6102cd565b60006001600160a01b038216158061011b57506001600160a01b03821673bb4cdb9cbd36b01bd1cbaebf2de08d9173bc095c145b156101395760405163c1ab6dc160e01b815260040160405180910390fd5b600061015973bb4cdb9cbd36b01bd1cbaebf2de08d9173bc095c84610650565b90506001600160a01b0381166101825760405163d719ab6960e01b815260040160405180910390fd5b6000806101a48373bb4cdb9cbd36b01bd1cbaebf2de08d9173bc095c876106e0565b915091506101b3868383610790565b9695505050505050565b6000806101de73bb4cdb9cbd36b01bd1cbaebf2de08d9173bc095c84610650565b6001600160a01b0316141592915050565b73bb4cdb9cbd36b01bd1cbaebf2de08d9173bc095b196001600160a01b038316016102575760405162461bcd60e51b815260206004820152601360248201527221b0b73737ba103932b1b7bb32b9102ba1272160691b60448201526064015b60405180910390fd5b60405163a9059cbb60e01b8152336004820152602481018290526001600160a01b0383169063a9059cbb906044016020604051808303816000875af11580156102a4573d6000803e3d6000fd5b505050506040513d601f19601f820116820180604052508101906102c89190610a03565b505050565b60006002600054036103215760405162461bcd60e51b815260206004820152601f60248201527f5265656e7472616e637947756172643a207265656e7472616e742063616c6c00604482015260640161024e565b60026000554282101561034757604051631ab7da6b60e01b815260040160405180910390fd5b83600003610368576040516342301c2360e01b815260040160405180910390fd5b6001600160a01b038316158061039a57506001600160a01b03831673bb4cdb9cbd36b01bd1cbaebf2de08d9173bc095c145b156103b85760405163c1ab6dc160e01b815260040160405180910390fd5b60006103d873bb4cdb9cbd36b01bd1cbaebf2de08d9173bc095c85610650565b90506001600160a01b0381166104015760405163d719ab6960e01b815260040160405180910390fd5b6000806104238373bb4cdb9cbd36b01bd1cbaebf2de08d9173bc095c886106e0565b91509150610432878383610790565b9350833410156104555760405163098fb56160e01b815260040160405180910390fd5b73bb4cdb9cbd36b01bd1cbaebf2de08d9173bc095c6001600160a01b031663d0e30db0856040518263ffffffff1660e01b81526004016000604051808303818588803b1580156104a457600080fd5b505af11580156104b8573d6000803e3d6000fd5b505060405163a9059cbb60e01b81526001600160a01b03871660048201526024810188905273bb4cdb9cbd36b01bd1cbaebf2de08d9173bc095c935063a9059cbb925060440190506020604051808303816000875af115801561051f573d6000803e3d6000fd5b505050506040513d601f19601f820116820180604052508101906105439190610a03565b610560576040516312171d8360e31b815260040160405180910390fd5b6105818373bb4cdb9cbd36b01bd1cbaebf2de08d9173bc095c888a33610825565b833411156105fb576000336105968634610a3b565b604051600081818185875af1925050503d80600081146105d2576040519150601f19603f3d011682016040523d82523d6000602084013e6105d7565b606091505b50509050806105f9576040516312171d8360e31b815260040160405180910390fd5b505b60408051858152602081018990526001600160a01b0388169133917fdd36740e2a012d93061a0d99eaa9107860955de4e90027d3cf465a055026c407910160405180910390a350506001600055509392505050565b60405163e6a4390560e01b81526001600160a01b0380841660048301528216602482015260009073ca143ce32fe78f1f7019d7d551a6402fc5350c739063e6a4390590604401602060405180830381865afa1580156106b3573d6000803e3d6000fd5b505050506040513d601f19601f820116820180604052508101906106d79190610a4e565b90505b92915050565b600080600080866001600160a01b0316630902f1ac6040518163ffffffff1660e01b8152600401606060405180830381865afa158015610724573d6000803e3d6000fd5b505050506040513d601f19601f820116820180604052508101906107489190610a87565b506001600160701b031691506001600160701b03169150846001600160a01b0316866001600160a01b03161061077f578082610782565b81815b909890975095505050505050565b6000836000036107b3576040516342301c2360e01b815260040160405180910390fd5b8215806107be575081155b156107dc5760405163098fb56160e01b815260040160405180910390fd5b60006107e88585610ad7565b6107f4906103e8610ad7565b905060006108028685610a3b565b61080e906103e5610ad7565b905061081a8183610aee565b6101b3906001610b10565b6000856001600160a01b0316630dfe16816040518163ffffffff1660e01b8152600401602060405180830381865afa158015610865573d6000803e3d6000fd5b505050506040513d601f19601f820116820180604052508101906108899190610a4e565b9050600080826001600160a01b0316876001600160a01b0316146108af578460006108b3565b6000855b6040805160008152602081019182905263022c0d9f60e01b90915291935091506001600160a01b0389169063022c0d9f906108f79085908590899060248101610b23565b600060405180830381600087803b15801561091157600080fd5b505af1158015610925573d6000803e3d6000fd5b505050505050505050505050565b6001600160a01b038116811461094857600080fd5b50565b6000806040838503121561095e57600080fd5b82359150602083013561097081610933565b809150509250929050565b60006020828403121561098d57600080fd5b813561099881610933565b9392505050565b600080604083850312156109b257600080fd5b82356109bd81610933565b946020939093013593505050565b6000806000606084860312156109e057600080fd5b8335925060208401356109f281610933565b929592945050506040919091013590565b600060208284031215610a1557600080fd5b8151801515811461099857600080fd5b634e487b7160e01b600052601160045260246000fd5b818103818111156106da576106da610a25565b600060208284031215610a6057600080fd5b815161099881610933565b80516001600160701b0381168114610a8257600080fd5b919050565b600080600060608486031215610a9c57600080fd5b610aa584610a6b565b9250610ab360208501610a6b565b9150604084015163ffffffff81168114610acc57600080fd5b809150509250925092565b80820281158282048414176106da576106da610a25565b600082610b0b57634e487b7160e01b600052601260045260246000fd5b500490565b808201808211156106da576106da610a25565b84815260006020858184015260018060a01b038516604084015260806060840152835180608085015260005b81811015610b6b5785810183015185820160a001528201610b4f565b50600060a0828601015260a0601f19601f830116850101925050509594505050505056fea264697066735822122056c7bb256435c922f991f41ba214c194b8de41779e1db391f4ee92a67ce2f07f64736f6c63430008130033","linkReferences":{}},"methodIdentifiers":{"getAmountIn(uint256,address)":"1125f13f","pairExists(address)":"1a56f648","recoverToken(address,uint256)":"b29a8140","swapBNBForExactTokens(uint256,address,uint256)":"d7c70c5a"},"id":24}